{
  "_format": "hh-sol-artifact-1",
  "contractName": "EncryptedIntentProtocol",
  "sourceName": "contracts/EncryptedIntentProtocol.sol",
  "abi": [
    {
      "anonymous": false,
      "inputs": [
        {
          "indexed": true,
          "internalType": "uint256",
          "name": "intentId",
          "type": "uint256"
        },
        {
          "indexed": true,
          "internalType": "address",
          "name": "user",
          "type": "address"
        },
        {
          "indexed": false,
          "internalType": "uint256",
          "name": "createdAt",
          "type": "uint256"
        }
      ],
      "name": "IntentCreated",
      "type": "event"
    },
    {
      "anonymous": false,
      "inputs": [
        {
          "indexed": true,
          "internalType": "uint256",
          "name": "intentId",
          "type": "uint256"
        },
        {
          "indexed": true,
          "internalType": "address",
          "name": "solver",
          "type": "address"
        },
        {
          "indexed": false,
          "internalType": "uint256",
          "name": "offerIndex",
          "type": "uint256"
        }
      ],
      "name": "IntentFilled",
      "type": "event"
    },
    {
      "anonymous": false,
      "inputs": [
        {
          "indexed": true,
          "internalType": "uint256",
          "name": "intentId",
          "type": "uint256"
        },
        {
          "indexed": true,
          "internalType": "address",
          "name": "solver",
          "type": "address"
        },
        {
          "indexed": false,
          "internalType": "uint256",
          "name": "offerIndex",
          "type": "uint256"
        }
      ],
      "name": "OfferSubmitted",
      "type": "event"
    },
    {
      "inputs": [
        {
          "internalType": "einput",
          "name": "encryptedTokenIn",
          "type": "bytes32"
        },
        {
          "internalType": "einput",
          "name": "encryptedMinOut",
          "type": "bytes32"
        },
        {
          "internalType": "einput",
          "name": "encryptedSourceChain",
          "type": "bytes32"
        },
        {
          "internalType": "einput",
          "name": "encryptedDestChain",
          "type": "bytes32"
        },
        {
          "internalType": "bytes",
          "name": "inputProof",
          "type": "bytes"
        }
      ],
      "name": "createIntent",
      "outputs": [
        {
          "internalType": "uint256",
          "name": "",
          "type": "uint256"
        }
      ],
      "stateMutability": "nonpayable",
      "type": "function"
    },
    {
      "inputs": [
        {
          "internalType": "uint256",
          "name": "intentId",
          "type": "uint256"
        }
      ],
      "name": "getIntentCreator",
      "outputs": [
        {
          "internalType": "address",
          "name": "",
          "type": "address"
        }
      ],
      "stateMutability": "view",
      "type": "function"
    },
    {
      "inputs": [
        {
          "internalType": "uint256",
          "name": "intentId",
          "type": "uint256"
        }
      ],
      "name": "getIntentTimestamp",
      "outputs": [
        {
          "internalType": "uint256",
          "name": "",
          "type": "uint256"
        }
      ],
      "stateMutability": "view",
      "type": "function"
    },
    {
      "inputs": [
        {
          "internalType": "uint256",
          "name": "intentId",
          "type": "uint256"
        }
      ],
      "name": "getOfferCount",
      "outputs": [
        {
          "internalType": "uint256",
          "name": "",
          "type": "uint256"
        }
      ],
      "stateMutability": "view",
      "type": "function"
    },
    {
      "inputs": [],
      "name": "intentCounter",
      "outputs": [
        {
          "internalType": "uint256",
          "name": "",
          "type": "uint256"
        }
      ],
      "stateMutability": "view",
      "type": "function"
    },
    {
      "inputs": [
        {
          "internalType": "uint256",
          "name": "",
          "type": "uint256"
        }
      ],
      "name": "intents",
      "outputs": [
        {
          "internalType": "address",
          "name": "user",
          "type": "address"
        },
        {
          "internalType": "euint64",
          "name": "encryptedTokenInAmount",
          "type": "uint256"
        },
        {
          "internalType": "euint64",
          "name": "encryptedMinTokenOut",
          "type": "uint256"
        },
        {
          "internalType": "euint8",
          "name": "encryptedSourceChain",
          "type": "uint256"
        },
        {
          "internalType": "euint8",
          "name": "encryptedDestChain",
          "type": "uint256"
        },
        {
          "internalType": "euint64",
          "name": "encryptedDeadline",
          "type": "uint256"
        },
        {
          "internalType": "uint256",
          "name": "createdAt",
          "type": "uint256"
        },
        {
          "internalType": "bool",
          "name": "isActive",
          "type": "bool"
        },
        {
          "internalType": "bool",
          "name": "isFilled",
          "type": "bool"
        }
      ],
      "stateMutability": "view",
      "type": "function"
    },
    {
      "inputs": [
        {
          "internalType": "uint256",
          "name": "intentId",
          "type": "uint256"
        }
      ],
      "name": "isIntentActive",
      "outputs": [
        {
          "internalType": "bool",
          "name": "",
          "type": "bool"
        }
      ],
      "stateMutability": "view",
      "type": "function"
    },
    {
      "inputs": [
        {
          "internalType": "uint256",
          "name": "intentId",
          "type": "uint256"
        }
      ],
      "name": "matchIntent",
      "outputs": [],
      "stateMutability": "nonpayable",
      "type": "function"
    },
    {
      "inputs": [
        {
          "internalType": "uint256",
          "name": "",
          "type": "uint256"
        },
        {
          "internalType": "uint256",
          "name": "",
          "type": "uint256"
        }
      ],
      "name": "offersForIntent",
      "outputs": [
        {
          "internalType": "address",
          "name": "solver",
          "type": "address"
        },
        {
          "internalType": "uint256",
          "name": "intentId",
          "type": "uint256"
        },
        {
          "internalType": "euint64",
          "name": "encryptedRate",
          "type": "uint256"
        },
        {
          "internalType": "euint64",
          "name": "encryptedFee",
          "type": "uint256"
        },
        {
          "internalType": "euint64",
          "name": "encryptedTimestamp",
          "type": "uint256"
        },
        {
          "internalType": "bool",
          "name": "isAccepted",
          "type": "bool"
        }
      ],
      "stateMutability": "view",
      "type": "function"
    },
    {
      "inputs": [
        {
          "internalType": "uint256",
          "name": "intentId",
          "type": "uint256"
        },
        {
          "internalType": "einput",
          "name": "encryptedRate",
          "type": "bytes32"
        },
        {
          "internalType": "einput",
          "name": "encryptedFee",
          "type": "bytes32"
        },
        {
          "internalType": "bytes",
          "name": "inputProof",
          "type": "bytes"
        }
      ],
      "name": "submitOffer",
      "outputs": [],
      "stateMutability": "nonpayable",
      "type": "function"
    }
  ],
  "bytecode": "0x608060405234801561000f575f80fd5b50610f6c8061001d5f395ff3fe608060405234801561000f575f80fd5b506004361061009b575f3560e01c806381ad298a1161006357806381ad298a1461020957806390edf4ab1461021c578063a69437d01461022f578063b2783d3514610252578063f5d4609114610265575f80fd5b806311d3fa5b1461009f5780633338fb24146100f057806346a1a09514610111578063488f3a40146101c9578063629aad19146101f4575b5f80fd5b6100b26100ad366004610cf0565b61026e565b604080516001600160a01b03909716875260208701959095529385019290925260608401526080830152151560a082015260c0015b60405180910390f35b6101036100fe366004610d55565b6102cb565b6040519081526020016100e7565b61017761011f366004610dba565b600a6020525f9081526040902080546001820154600283015460038401546004850154600586015460068701546007909701546001600160a01b03909616969495939492939192909160ff8082169161010090041689565b604080516001600160a01b03909a168a5260208a0198909852968801959095526060870193909352608086019190915260a085015260c0840152151560e08301521515610100820152610120016100e7565b6101dc6101d7366004610dba565b6105ce565b6040516001600160a01b0390911681526020016100e7565b610207610202366004610dba565b610614565b005b610103610217366004610dba565b610785565b61010361022a366004610dba565b6107b9565b61024261023d366004610dba565b6107f0565b60405190151581526020016100e7565b610207610260366004610dd1565b61082a565b610103600c5481565b600b602052815f5260405f208181548110610287575f80fd5b5f9182526020909120600690910201805460018201546002830154600384015460048501546005909501546001600160a01b03909416965091945092909160ff1686565b600c80545f91829190826102de83610e41565b9190505590505f6103248986868080601f0160208091040260200160405190810160405280939291908181526020018383808284375f92019190915250610ac492505050565b90505f6103668987878080601f0160208091040260200160405190810160405280939291908181526020018383808284375f92019190915250610ac492505050565b90505f6103a88988888080601f0160208091040260200160405190810160405280939291908181526020018383808284375f92019190915250610ada92505050565b90505f6103ea8989898080601f0160208091040260200160405190810160405280939291908181526020018383808284375f92019190915250610ada92505050565b90505f61040b6103fc42610e10610e59565b67ffffffffffffffff16610ae7565b90506104178530610af3565b6104218430610af3565b61042b8330610af3565b6104358230610af3565b61043f8130610af3565b6104498533610af3565b6104538433610af3565b61045d8333610af3565b6104678233610af3565b6104718133610af3565b604051806101200160405280336001600160a01b031681526020018681526020018581526020018481526020018381526020018281526020014281526020016001151581526020015f1515815250600a5f8881526020019081526020015f205f820151815f015f6101000a8154816001600160a01b0302191690836001600160a01b031602179055506020820151816001015560408201518160020155606082015181600301556080820151816004015560a0820151816005015560c0820151816006015560e0820151816007015f6101000a81548160ff0219169083151502179055506101008201518160070160016101000a81548160ff021916908315150217905550905050336001600160a01b0316867f209e6b6555a7306e1825e23a60861b6969478f524484540bae805fb5e9a1f6d8426040516105b591815260200190565b60405180910390a350939b9a5050505050505050505050565b5f600c5482106105f95760405162461bcd60e51b81526004016105f090610e6c565b60405180910390fd5b505f908152600a60205260409020546001600160a01b031690565b600c5481106106355760405162461bcd60e51b81526004016105f090610e6c565b5f818152600a602052604090206007015460ff1661068c5760405162461bcd60e51b8152602060048201526014602482015273496e74656e74206973206e6f742061637469766560601b60448201526064016105f0565b5f818152600b60205260409020546106dc5760405162461bcd60e51b81526020600482015260136024820152724e6f206f666665727320617661696c61626c6560681b60448201526064016105f0565b5f818152600a60209081526040808320600b90925282208054919291829061070657610706610e9b565b5f9182526020822060078501805461ffff19166101001790556005600690920201908101805460ff1916600117905580546040519193506001600160a01b03169185917fa8604b48eac43d2945ca6bc31af5d9ee38056b2969eaed91c3c6b892b09402d3916107789190815260200190565b60405180910390a3505050565b5f600c5482106107a75760405162461bcd60e51b81526004016105f090610e6c565b505f908152600b602052604090205490565b5f600c5482106107db5760405162461bcd60e51b81526004016105f090610e6c565b505f908152600a602052604090206006015490565b5f600c5482106108125760405162461bcd60e51b81526004016105f090610e6c565b505f908152600a602052604090206007015460ff1690565b600c54851061084b5760405162461bcd60e51b81526004016105f090610e6c565b5f858152600a602052604090206007015460ff166108a25760405162461bcd60e51b8152602060048201526014602482015273496e74656e74206973206e6f742061637469766560601b60448201526064016105f0565b5f858152600a6020526040902060070154610100900460ff16156109085760405162461bcd60e51b815260206004820152601860248201527f496e74656e7420697320616c72656164792066696c6c6564000000000000000060448201526064016105f0565b5f6109488584848080601f0160208091040260200160405190810160405280939291908181526020018383808284375f92019190915250610ac492505050565b90505f61098a8585858080601f0160208091040260200160405190810160405280939291908181526020018383808284375f92019190915250610ac492505050565b90505f6109a04267ffffffffffffffff16610ae7565b90506109ac8330610af3565b6109b68230610af3565b6109c08130610af3565b6109ca8333610af3565b6109d48233610af3565b6109de8133610af3565b5f888152600b602090815260408083208054825160c081018452338082528186018f81528286018b8152606084018b8152608085018b815260a086018b815260018089018a55988c529a8a902095516006880290960180546001600160a01b0319166001600160a01b03909716969096178655925196850196909655516002840155935160038301559251600482015594516005909501805460ff191695151595909517909455905183815290918b917f9ce423f721817463c7cc902096f4dc780402a942570ea20e5577fa2db4942d4e910160405180910390a3505050505050505050565b5f610ad183836005610b01565b90505b92915050565b5f610ad183836002610b01565b5f610ad4826005610bf4565b610afd8282610c7d565b5050565b6040516302e817ff60e41b81525f907305fd9b5efe0a996095f42ed7e77c390810cf660c90632e817ff090610b449087903390889060f889901b90600401610eaf565b6020604051808303815f875af1158015610b60573d5f803e3d5ffd5b505050506040513d601f19601f82011682018060405250810190610b849190610f1f565b6040516346ce4e4960e11b815260048101829052336024820152909150732fb4341027eb1d2ad8b5d9708187df8633cafa9290638d9c9c92906044015f604051808303815f87803b158015610bd7575f80fd5b505af1158015610be9573d5f803e3d5ffd5b505050509392505050565b604051631ce2e8d760e31b8152600481018390526001600160f81b031960f883901b1660248201525f907305fd9b5efe0a996095f42ed7e77c390810cf660c9063e71746b8906044016020604051808303815f875af1158015610c59573d5f803e3d5ffd5b505050506040513d601f19601f82011682018060405250810190610ad19190610f1f565b604051631974142760e21b8152600481018390526001600160a01b0382166024820152732fb4341027eb1d2ad8b5d9708187df8633cafa92906365d0509c906044015f604051808303815f87803b158015610cd6575f80fd5b505af1158015610ce8573d5f803e3d5ffd5b505050505050565b5f8060408385031215610d01575f80fd5b50508035926020909101359150565b5f8083601f840112610d20575f80fd5b50813567ffffffffffffffff811115610d37575f80fd5b602083019150836020828501011115610d4e575f80fd5b9250929050565b5f805f805f8060a08789031215610d6a575f80fd5b86359550602087013594506040870135935060608701359250608087013567ffffffffffffffff811115610d9c575f80fd5b610da889828a01610d10565b979a9699509497509295939492505050565b5f60208284031215610dca575f80fd5b5035919050565b5f805f805f60808688031215610de5575f80fd5b853594506020860135935060408601359250606086013567ffffffffffffffff811115610e10575f80fd5b610e1c88828901610d10565b969995985093965092949392505050565b634e487b7160e01b5f52601160045260245ffd5b5f60018201610e5257610e52610e2d565b5060010190565b80820180821115610ad457610ad4610e2d565b602080825260159082015274125b9d195b9d08191bd95cc81b9bdd08195e1a5cdd605a1b604082015260600190565b634e487b7160e01b5f52603260045260245ffd5b8481525f602060018060a01b03861660208401526080604084015284518060808501525f5b81811015610ef05786810183015185820160a001528201610ed4565b505f60a0828601015260a0601f19601f8301168501019250505060ff60f81b8316606083015295945050505050565b5f60208284031215610f2f575f80fd5b505191905056fea26469706673582212207bd8ce672a09db859859a0f58faabb5ca5702d445df7662cd8f822972eabb29264736f6c63430008180033",
  "linkReferences": {},
  "deployedLinkReferences": {}
}