{
  "_format": "hh-sol-artifact-1",
  "contractName": "KMSVerifier",
  "sourceName": "fhevm/lib/KMSVerifier.sol",
  "abi": [
    {
      "inputs": [],
      "stateMutability": "nonpayable",
      "type": "constructor"
    },
    {
      "inputs": [],
      "name": "ECDSAInvalidSignature",
      "type": "error"
    },
    {
      "inputs": [
        {
          "internalType": "uint256",
          "name": "length",
          "type": "uint256"
        }
      ],
      "name": "ECDSAInvalidSignatureLength",
      "type": "error"
    },
    {
      "inputs": [
        {
          "internalType": "bytes32",
          "name": "s",
          "type": "bytes32"
        }
      ],
      "name": "ECDSAInvalidSignatureS",
      "type": "error"
    },
    {
      "inputs": [],
      "name": "InvalidShortString",
      "type": "error"
    },
    {
      "inputs": [
        {
          "internalType": "address",
          "name": "owner",
          "type": "address"
        }
      ],
      "name": "OwnableInvalidOwner",
      "type": "error"
    },
    {
      "inputs": [
        {
          "internalType": "address",
          "name": "account",
          "type": "address"
        }
      ],
      "name": "OwnableUnauthorizedAccount",
      "type": "error"
    },
    {
      "inputs": [
        {
          "internalType": "string",
          "name": "str",
          "type": "string"
        }
      ],
      "name": "StringTooLong",
      "type": "error"
    },
    {
      "anonymous": false,
      "inputs": [],
      "name": "EIP712DomainChanged",
      "type": "event"
    },
    {
      "anonymous": false,
      "inputs": [
        {
          "indexed": true,
          "internalType": "address",
          "name": "previousOwner",
          "type": "address"
        },
        {
          "indexed": true,
          "internalType": "address",
          "name": "newOwner",
          "type": "address"
        }
      ],
      "name": "OwnershipTransferStarted",
      "type": "event"
    },
    {
      "anonymous": false,
      "inputs": [
        {
          "indexed": true,
          "internalType": "address",
          "name": "previousOwner",
          "type": "address"
        },
        {
          "indexed": true,
          "internalType": "address",
          "name": "newOwner",
          "type": "address"
        }
      ],
      "name": "OwnershipTransferred",
      "type": "event"
    },
    {
      "anonymous": false,
      "inputs": [
        {
          "indexed": true,
          "internalType": "address",
          "name": "verifier",
          "type": "address"
        }
      ],
      "name": "VerifierAdded",
      "type": "event"
    },
    {
      "anonymous": false,
      "inputs": [
        {
          "indexed": true,
          "internalType": "address",
          "name": "verifier",
          "type": "address"
        }
      ],
      "name": "VerifierRemoved",
      "type": "event"
    },
    {
      "inputs": [],
      "name": "DECRYPTIONRESULT_TYPE",
      "outputs": [
        {
          "internalType": "string",
          "name": "",
          "type": "string"
        }
      ],
      "stateMutability": "view",
      "type": "function"
    },
    {
      "inputs": [],
      "name": "acceptOwnership",
      "outputs": [],
      "stateMutability": "nonpayable",
      "type": "function"
    },
    {
      "inputs": [
        {
          "internalType": "address",
          "name": "verifier",
          "type": "address"
        }
      ],
      "name": "addVerifier",
      "outputs": [],
      "stateMutability": "nonpayable",
      "type": "function"
    },
    {
      "inputs": [],
      "name": "eip712Domain",
      "outputs": [
        {
          "internalType": "bytes1",
          "name": "fields",
          "type": "bytes1"
        },
        {
          "internalType": "string",
          "name": "name",
          "type": "string"
        },
        {
          "internalType": "string",
          "name": "version",
          "type": "string"
        },
        {
          "internalType": "uint256",
          "name": "chainId",
          "type": "uint256"
        },
        {
          "internalType": "address",
          "name": "verifyingContract",
          "type": "address"
        },
        {
          "internalType": "bytes32",
          "name": "salt",
          "type": "bytes32"
        },
        {
          "internalType": "uint256[]",
          "name": "extensions",
          "type": "uint256[]"
        }
      ],
      "stateMutability": "view",
      "type": "function"
    },
    {
      "inputs": [],
      "name": "getVersion",
      "outputs": [
        {
          "internalType": "string",
          "name": "",
          "type": "string"
        }
      ],
      "stateMutability": "pure",
      "type": "function"
    },
    {
      "inputs": [
        {
          "internalType": "address",
          "name": "",
          "type": "address"
        }
      ],
      "name": "isVerifier",
      "outputs": [
        {
          "internalType": "bool",
          "name": "",
          "type": "bool"
        }
      ],
      "stateMutability": "view",
      "type": "function"
    },
    {
      "inputs": [],
      "name": "owner",
      "outputs": [
        {
          "internalType": "address",
          "name": "",
          "type": "address"
        }
      ],
      "stateMutability": "view",
      "type": "function"
    },
    {
      "inputs": [],
      "name": "pendingOwner",
      "outputs": [
        {
          "internalType": "address",
          "name": "",
          "type": "address"
        }
      ],
      "stateMutability": "view",
      "type": "function"
    },
    {
      "inputs": [
        {
          "internalType": "address",
          "name": "verifier",
          "type": "address"
        }
      ],
      "name": "removeVerifier",
      "outputs": [],
      "stateMutability": "nonpayable",
      "type": "function"
    },
    {
      "inputs": [],
      "name": "renounceOwnership",
      "outputs": [],
      "stateMutability": "nonpayable",
      "type": "function"
    },
    {
      "inputs": [],
      "name": "threshold",
      "outputs": [
        {
          "internalType": "uint256",
          "name": "",
          "type": "uint256"
        }
      ],
      "stateMutability": "view",
      "type": "function"
    },
    {
      "inputs": [
        {
          "internalType": "address",
          "name": "newOwner",
          "type": "address"
        }
      ],
      "name": "transferOwnership",
      "outputs": [],
      "stateMutability": "nonpayable",
      "type": "function"
    },
    {
      "inputs": [
        {
          "internalType": "uint256",
          "name": "",
          "type": "uint256"
        }
      ],
      "name": "verifiers",
      "outputs": [
        {
          "internalType": "address",
          "name": "",
          "type": "address"
        }
      ],
      "stateMutability": "view",
      "type": "function"
    },
    {
      "inputs": [
        {
          "internalType": "uint256[]",
          "name": "handlesList",
          "type": "uint256[]"
        },
        {
          "internalType": "bytes",
          "name": "decryptedResult",
          "type": "bytes"
        },
        {
          "internalType": "bytes[]",
          "name": "signatures",
          "type": "bytes[]"
        }
      ],
      "name": "verifySignatures",
      "outputs": [
        {
          "internalType": "bool",
          "name": "",
          "type": "bool"
        }
      ],
      "stateMutability": "nonpayable",
      "type": "function"
    }
  ],
  "bytecode": "0x61016060405234801562000011575f80fd5b50604080518082018252600b81526a25a6a9ab32b934b334b2b960a91b602080830191909152825180840190935260018352603160f81b908301529033806200007457604051631e4fbdf760e01b81525f60048201526024015b60405180910390fd5b6200007f816200013a565b506200008d82600262000158565b610120526200009e81600362000158565b61014052815160208084019190912060e052815190820120610100524660a0526200012b60e05161010051604080517f8b73c3c69bb8fe3d512ecc4cf759cc79239f7b179b0ffacaa9a75d522b39400f60208201529081019290925260608201524660808201523060a08201525f9060c00160405160208183030381529060405280519060200120905090565b60805250503060c052620003fd565b600180546001600160a01b0319169055620001558162000190565b50565b5f60208351101562000177576200016f83620001df565b90506200018a565b81620001848482620002bf565b5060ff90505b92915050565b5f80546001600160a01b038381166001600160a01b0319831681178455604051919092169283917f8be0079c531659141344cd1fd0a4f28419497f9722a3daafe3b4186f6b6457e09190a35050565b5f80829050601f815111156200020c578260405163305a27a960e01b81526004016200006b91906200038b565b80516200021982620003d9565b179392505050565b634e487b7160e01b5f52604160045260245ffd5b600181811c908216806200024a57607f821691505b6020821081036200026957634e487b7160e01b5f52602260045260245ffd5b50919050565b601f821115620002ba57805f5260205f20601f840160051c81016020851015620002965750805b601f840160051c820191505b81811015620002b7575f8155600101620002a2565b50505b505050565b81516001600160401b03811115620002db57620002db62000221565b620002f381620002ec845462000235565b846200026f565b602080601f83116001811462000329575f8415620003115750858301515b5f19600386901b1c1916600185901b17855562000383565b5f85815260208120601f198616915b82811015620003595788860151825594840194600190910190840162000338565b50858210156200037757878501515f19600388901b60f8161c191681555b505060018460011b0185555b505050505050565b5f602080835283518060208501525f5b81811015620003b9578581018301518582016040015282016200039b565b505f604082860101526040601f19601f8301168501019250505092915050565b8051602080830151919081101562000269575f1960209190910360031b1b16919050565b60805160a05160c05160e0516101005161012051610140516116946200044f5f395f61087501525f61084301525f610eb401525f610e8c01525f610de701525f610e1101525f610e3b01526116945ff3fe608060405234801561000f575f80fd5b50600436106100e5575f3560e01c80639000b3d611610088578063d93d91c711610063578063d93d91c7146101da578063e30c3978146101e2578063e8391e6a146101f3578063f2fde38b14610206575f80fd5b80639000b3d6146101a1578063ac1eff68146101b4578063ca2dfd0a146101c7575f80fd5b8063715018a6116100c3578063715018a61461015057806379ba50971461015a57806384b0196e146101625780638da5cb5b1461017d575f80fd5b80630d8e6e2c146100e9578063331052181461010757806342cde4e814610139575b5f80fd5b6100f1610219565b6040516100fe9190611169565b60405180910390f35b610129610115366004611182565b60046020525f908152604090205460ff1681565b60405190151581526020016100fe565b61014260065481565b6040519081526020016100fe565b610158610282565b005b610158610295565b61016a6102de565b6040516100fe97969594939291906111a8565b5f546001600160a01b03165b6040516001600160a01b0390911681526020016100fe565b6101586101af366004611182565b610320565b6101896101c236600461123f565b61049b565b6101586101d5366004611182565b6104c3565b6100f1610693565b6001546001600160a01b0316610189565b6101296102013660046113b5565b6106af565b610158610214366004611182565b6106f7565b60606040518060400160405280600b81526020016a25a6a9ab32b934b334b2b960a91b8152506102485f610767565b6102526001610767565b61025b5f610767565b60405160200161026e949392919061148a565b604051602081830303815290604052905090565b61028a6107f7565b6102935f610823565b565b60015433906001600160a01b031681146102d25760405163118cdaa760e01b81526001600160a01b03821660048201526024015b60405180910390fd5b6102db81610823565b50565b5f6060805f805f60606102ef61083c565b6102f761086e565b604080515f80825260208201909252600f60f81b9b939a50919850469750309650945092509050565b6103286107f7565b6001600160a01b03811661037e5760405162461bcd60e51b815260206004820152601c60248201527f4b4d5356657269666965723a2041646472657373206973206e756c6c0000000060448201526064016102c9565b6001600160a01b0381165f9081526004602052604090205460ff16156103f95760405162461bcd60e51b815260206004820152602a60248201527f4b4d5356657269666965723a204164647265737320697320616c72656164792060448201526930903b32b934b334b2b960b11b60648201526084016102c9565b6001600160a01b0381165f818152600460205260408120805460ff191660019081179091556005805491820181559091527f036b6384b5eca791c62761152d0c79bb0604c104a5fb6f4eb0703f3154bb3db00180546001600160a01b031916909117905561046561089b565b6040516001600160a01b038216907f6d05492139c5ea989514a5d2150c028041e5c087e2a39967f67dc7d2655adb81905f90a250565b600581815481106104aa575f80fd5b5f918252602090912001546001600160a01b0316905081565b6104cb6107f7565b6001600160a01b0381165f9081526004602052604090205460ff166105415760405162461bcd60e51b815260206004820152602660248201527f4b4d5356657269666965723a2041646472657373206973206e6f7420612076656044820152653934b334b2b960d11b60648201526084016102c9565b6001600160a01b0381165f908152600460205260408120805460ff191690555b60055481101561068f57816001600160a01b03166005828154811061058857610588611507565b5f918252602090912001546001600160a01b03160361068757600580546105b19060019061152f565b815481106105c1576105c1611507565b5f91825260209091200154600580546001600160a01b0390921691839081106105ec576105ec611507565b905f5260205f20015f6101000a8154816001600160a01b0302191690836001600160a01b03160217905550600580548061062857610628611542565b5f8281526020902081015f1990810180546001600160a01b031916905501905561065061089b565b6040516001600160a01b038316907f44a3cd4eb5cc5748f6169df057b1cb2ae4c383e87cd94663c430e095d4cba424905f90a25050565b600101610561565b5050565b6040518060600160405280603d8152602001611622603d913981565b5f6106cd604051806040016040528060608152602001606081525090565b848152602081018490525f6106e1826108c7565b90506106ed8185610963565b9695505050505050565b6106ff6107f7565b600180546001600160a01b0383166001600160a01b0319909116811790915561072f5f546001600160a01b031690565b6001600160a01b03167f38d16b8cac22d99fc7c124b9cd0de2d3fa1faef420bfe791d8c362d765e2270060405160405180910390a350565b60605f61077383610b88565b60010190505f8167ffffffffffffffff81111561079257610792611256565b6040519080825280601f01601f1916602001820160405280156107bc576020820181803683370190505b5090508181016020015b5f19016f181899199a1a9b1b9c1cb0b131b232b360811b600a86061a8153600a85049450846107c657509392505050565b5f546001600160a01b031633146102935760405163118cdaa760e01b81523360048201526024016102c9565b600180546001600160a01b03191690556102db81610c5f565b60606108697f00000000000000000000000000000000000000000000000000000000000000006002610cae565b905090565b60606108697f00000000000000000000000000000000000000000000000000000000000000006003610cae565b6005546003906108ad9060019061152f565b6108b79190611556565b6108c2906001611575565b600655565b5f61095d6040518060600160405280603d8152602001611622603d91398051602091820120845160405191926108fd9201611588565b60405160208183030381529060405280519060200120846020015180519060200120604051602001610942939291909283526020830191909152604082015260600190565b60405160208183030381529060405280519060200120610d57565b92915050565b80515f90806109c05760405162461bcd60e51b815260206004820152602360248201527f4b6d7356657269666965723a206e6f207369676e6174757265732070726f766960448201526219195960ea1b60648201526084016102c9565b600654811015610a385760405162461bcd60e51b815260206004820152603d60248201527f4b6d7356657269666965723a206174206c65617374207468726573686f6c642060448201527f6e756d626572206f66207369676e61747572657320726571756972656400000060648201526084016102c9565b5f8167ffffffffffffffff811115610a5257610a52611256565b604051908082528060200260200182016040528015610a7b578160200160208202803683370190505b5090505f805b83811015610b7c575f610aad88888481518110610aa057610aa0611507565b6020026020010151610d83565b6001600160a01b0381165f9081526004602052604090205490915060ff1615610b1957805c610b195780848481518110610ae957610ae9611507565b6001600160a01b039092166020928302919091019091015282610b0b816115bd565b935050610b19816001610d97565b6006548310610b69575f5b83831015610b5a57610b4f858281518110610b4157610b41611507565b60200260200101515f610d97565b600190920191610b24565b5060019550505050505061095d565b5080610b74816115bd565b915050610a81565b505f9695505050505050565b5f8072184f03e93ff9f4daa797ed6e38ed64bf6a1f0160401b8310610bc65772184f03e93ff9f4daa797ed6e38ed64bf6a1f0160401b830492506040015b6d04ee2d6d415b85acef81000000008310610bf2576d04ee2d6d415b85acef8100000000830492506020015b662386f26fc100008310610c1057662386f26fc10000830492506010015b6305f5e1008310610c28576305f5e100830492506008015b6127108310610c3c57612710830492506004015b60648310610c4e576064830492506002015b600a831061095d5760010192915050565b5f80546001600160a01b038381166001600160a01b0319831681178455604051919092169283917f8be0079c531659141344cd1fd0a4f28419497f9722a3daafe3b4186f6b6457e09190a35050565b606060ff8314610cc857610cc183610d9e565b905061095d565b818054610cd4906115d5565b80601f0160208091040260200160405190810160405280929190818152602001828054610d00906115d5565b8015610d4b5780601f10610d2257610100808354040283529160200191610d4b565b820191905f5260205f20905b815481529060010190602001808311610d2e57829003601f168201915b5050505050905061095d565b5f61095d610d63610ddb565b8360405161190160f01b8152600281019290925260228201526042902090565b5f80610d8f8484610f04565b949350505050565b80825d5050565b60605f610daa83610f2c565b6040805160208082528183019092529192505f91906020820181803683375050509182525060208101929092525090565b5f306001600160a01b037f000000000000000000000000000000000000000000000000000000000000000016148015610e3357507f000000000000000000000000000000000000000000000000000000000000000046145b15610e5d57507f000000000000000000000000000000000000000000000000000000000000000090565b610869604080517f8b73c3c69bb8fe3d512ecc4cf759cc79239f7b179b0ffacaa9a75d522b39400f60208201527f0000000000000000000000000000000000000000000000000000000000000000918101919091527f000000000000000000000000000000000000000000000000000000000000000060608201524660808201523060a08201525f9060c00160405160208183030381529060405280519060200120905090565b5f805f80610f128686610f53565b925092509250610f228282610f9c565b5090949350505050565b5f60ff8216601f81111561095d57604051632cd44ac360e21b815260040160405180910390fd5b5f805f8351604103610f8a576020840151604085015160608601515f1a610f7c88828585611054565b955095509550505050610f95565b505081515f91506002905b9250925092565b5f826003811115610faf57610faf61160d565b03610fb8575050565b6001826003811115610fcc57610fcc61160d565b03610fea5760405163f645eedf60e01b815260040160405180910390fd5b6002826003811115610ffe57610ffe61160d565b0361101f5760405163fce698f760e01b8152600481018290526024016102c9565b60038260038111156110335761103361160d565b0361068f576040516335e2f38360e21b8152600481018290526024016102c9565b5f80807f7fffffffffffffffffffffffffffffff5d576e7357a4501ddfe92f46681b20a084111561108d57505f91506003905082611112565b604080515f808252602082018084528a905260ff891692820192909252606081018790526080810186905260019060a0016020604051602081039080840390855afa1580156110de573d5f803e3d5ffd5b5050604051601f1901519150506001600160a01b03811661110957505f925060019150829050611112565b92505f91508190505b9450945094915050565b5f5b8381101561113657818101518382015260200161111e565b50505f910152565b5f815180845261115581602086016020860161111c565b601f01601f19169290920160200192915050565b602081525f61117b602083018461113e565b9392505050565b5f60208284031215611192575f80fd5b81356001600160a01b038116811461117b575f80fd5b60ff60f81b881681525f602060e060208401526111c860e084018a61113e565b83810360408501526111da818a61113e565b606085018990526001600160a01b038816608086015260a0850187905284810360c0860152855180825260208088019350909101905f5b8181101561122d57835183529284019291840191600101611211565b50909c9b505050505050505050505050565b5f6020828403121561124f575f80fd5b5035919050565b634e487b7160e01b5f52604160045260245ffd5b604051601f8201601f1916810167ffffffffffffffff8111828210171561129357611293611256565b604052919050565b5f67ffffffffffffffff8211156112b4576112b4611256565b5060051b60200190565b5f82601f8301126112cd575f80fd5b813567ffffffffffffffff8111156112e7576112e7611256565b6112fa601f8201601f191660200161126a565b81815284602083860101111561130e575f80fd5b816020850160208301375f918101602001919091529392505050565b5f82601f830112611339575f80fd5b8135602061134e6113498361129b565b61126a565b82815260059290921b8401810191818101908684111561136c575f80fd5b8286015b848110156113aa57803567ffffffffffffffff81111561138e575f80fd5b61139c8986838b01016112be565b845250918301918301611370565b509695505050505050565b5f805f606084860312156113c7575f80fd5b833567ffffffffffffffff808211156113de575f80fd5b818601915086601f8301126113f1575f80fd5b813560206114016113498361129b565b82815260059290921b8401810191818101908a84111561141f575f80fd5b948201945b8386101561143d57853582529482019490820190611424565b97505087013592505080821115611452575f80fd5b61145e878388016112be565b93506040860135915080821115611473575f80fd5b506114808682870161132a565b9150509250925092565b5f855161149b818460208a0161111c565b61103b60f11b90830190815285516114ba816002840160208a0161111c565b808201915050601760f91b80600283015285516114de816003850160208a0161111c565b600392019182015283516114f981600484016020880161111c565b016004019695505050505050565b634e487b7160e01b5f52603260045260245ffd5b634e487b7160e01b5f52601160045260245ffd5b8181038181111561095d5761095d61151b565b634e487b7160e01b5f52603160045260245ffd5b5f8261157057634e487b7160e01b5f52601260045260245ffd5b500490565b8082018082111561095d5761095d61151b565b81515f9082906020808601845b838110156115b157815185529382019390820190600101611595565b50929695505050505050565b5f600182016115ce576115ce61151b565b5060010190565b600181811c908216806115e957607f821691505b60208210810361160757634e487b7160e01b5f52602260045260245ffd5b50919050565b634e487b7160e01b5f52602160045260245ffdfe44656372797074696f6e526573756c742875696e743235365b5d2068616e646c65734c6973742c627974657320646563727970746564526573756c7429a264697066735822122079935295c308d6e68e6f0e0579d3acdbee6d16563ccfebac97a905c13faeb83164736f6c63430008180033",
  "linkReferences": {},
  "deployedLinkReferences": {}
}