{
  "_format": "hh-sol-artifact-1",
  "contractName": "GatewayContract",
  "sourceName": "fhevm/gateway/GatewayContract.sol",
  "abi": [
    {
      "inputs": [
        {
          "internalType": "address",
          "name": "_gatewayOwner",
          "type": "address"
        },
        {
          "internalType": "address",
          "name": "_kmsVerifier",
          "type": "address"
        }
      ],
      "stateMutability": "nonpayable",
      "type": "constructor"
    },
    {
      "inputs": [
        {
          "internalType": "address",
          "name": "owner",
          "type": "address"
        }
      ],
      "name": "OwnableInvalidOwner",
      "type": "error"
    },
    {
      "inputs": [
        {
          "internalType": "address",
          "name": "account",
          "type": "address"
        }
      ],
      "name": "OwnableUnauthorizedAccount",
      "type": "error"
    },
    {
      "anonymous": false,
      "inputs": [
        {
          "indexed": true,
          "internalType": "address",
          "name": "realyer",
          "type": "address"
        }
      ],
      "name": "AddedRelayer",
      "type": "event"
    },
    {
      "anonymous": false,
      "inputs": [
        {
          "indexed": true,
          "internalType": "uint256",
          "name": "requestID",
          "type": "uint256"
        },
        {
          "indexed": false,
          "internalType": "uint256[]",
          "name": "cts",
          "type": "uint256[]"
        },
        {
          "indexed": false,
          "internalType": "address",
          "name": "contractCaller",
          "type": "address"
        },
        {
          "indexed": false,
          "internalType": "bytes4",
          "name": "callbackSelector",
          "type": "bytes4"
        },
        {
          "indexed": false,
          "internalType": "uint256",
          "name": "msgValue",
          "type": "uint256"
        },
        {
          "indexed": false,
          "internalType": "uint256",
          "name": "maxTimestamp",
          "type": "uint256"
        },
        {
          "indexed": false,
          "internalType": "bool",
          "name": "passSignaturesToCaller",
          "type": "bool"
        }
      ],
      "name": "EventDecryption",
      "type": "event"
    },
    {
      "anonymous": false,
      "inputs": [
        {
          "indexed": true,
          "internalType": "address",
          "name": "previousOwner",
          "type": "address"
        },
        {
          "indexed": true,
          "internalType": "address",
          "name": "newOwner",
          "type": "address"
        }
      ],
      "name": "OwnershipTransferStarted",
      "type": "event"
    },
    {
      "anonymous": false,
      "inputs": [
        {
          "indexed": true,
          "internalType": "address",
          "name": "previousOwner",
          "type": "address"
        },
        {
          "indexed": true,
          "internalType": "address",
          "name": "newOwner",
          "type": "address"
        }
      ],
      "name": "OwnershipTransferred",
      "type": "event"
    },
    {
      "anonymous": false,
      "inputs": [
        {
          "indexed": true,
          "internalType": "address",
          "name": "realyer",
          "type": "address"
        }
      ],
      "name": "RemovedRelayer",
      "type": "event"
    },
    {
      "anonymous": false,
      "inputs": [
        {
          "indexed": true,
          "internalType": "uint256",
          "name": "requestID",
          "type": "uint256"
        },
        {
          "indexed": false,
          "internalType": "bool",
          "name": "success",
          "type": "bool"
        },
        {
          "indexed": false,
          "internalType": "bytes",
          "name": "result",
          "type": "bytes"
        }
      ],
      "name": "ResultCallback",
      "type": "event"
    },
    {
      "inputs": [],
      "name": "MAX_DELAY",
      "outputs": [
        {
          "internalType": "uint256",
          "name": "",
          "type": "uint256"
        }
      ],
      "stateMutability": "view",
      "type": "function"
    },
    {
      "inputs": [],
      "name": "acceptOwnership",
      "outputs": [],
      "stateMutability": "nonpayable",
      "type": "function"
    },
    {
      "inputs": [
        {
          "internalType": "address",
          "name": "relayerAddress",
          "type": "address"
        }
      ],
      "name": "addRelayer",
      "outputs": [],
      "stateMutability": "nonpayable",
      "type": "function"
    },
    {
      "inputs": [],
      "name": "counter",
      "outputs": [
        {
          "internalType": "uint256",
          "name": "",
          "type": "uint256"
        }
      ],
      "stateMutability": "view",
      "type": "function"
    },
    {
      "inputs": [
        {
          "internalType": "uint256",
          "name": "requestID",
          "type": "uint256"
        },
        {
          "internalType": "bytes",
          "name": "decryptedCts",
          "type": "bytes"
        },
        {
          "internalType": "bytes[]",
          "name": "signatures",
          "type": "bytes[]"
        }
      ],
      "name": "fulfillRequest",
      "outputs": [],
      "stateMutability": "payable",
      "type": "function"
    },
    {
      "inputs": [],
      "name": "getVersion",
      "outputs": [
        {
          "internalType": "string",
          "name": "",
          "type": "string"
        }
      ],
      "stateMutability": "pure",
      "type": "function"
    },
    {
      "inputs": [
        {
          "internalType": "uint256",
          "name": "requestID",
          "type": "uint256"
        }
      ],
      "name": "isExpiredOrFulfilled",
      "outputs": [
        {
          "internalType": "bool",
          "name": "",
          "type": "bool"
        }
      ],
      "stateMutability": "view",
      "type": "function"
    },
    {
      "inputs": [
        {
          "internalType": "address",
          "name": "",
          "type": "address"
        }
      ],
      "name": "isRelayer",
      "outputs": [
        {
          "internalType": "bool",
          "name": "",
          "type": "bool"
        }
      ],
      "stateMutability": "view",
      "type": "function"
    },
    {
      "inputs": [],
      "name": "owner",
      "outputs": [
        {
          "internalType": "address",
          "name": "",
          "type": "address"
        }
      ],
      "stateMutability": "view",
      "type": "function"
    },
    {
      "inputs": [],
      "name": "pendingOwner",
      "outputs": [
        {
          "internalType": "address",
          "name": "",
          "type": "address"
        }
      ],
      "stateMutability": "view",
      "type": "function"
    },
    {
      "inputs": [
        {
          "internalType": "address",
          "name": "relayerAddress",
          "type": "address"
        }
      ],
      "name": "removeRelayer",
      "outputs": [],
      "stateMutability": "nonpayable",
      "type": "function"
    },
    {
      "inputs": [],
      "name": "renounceOwnership",
      "outputs": [],
      "stateMutability": "nonpayable",
      "type": "function"
    },
    {
      "inputs": [
        {
          "internalType": "uint256[]",
          "name": "ctsHandles",
          "type": "uint256[]"
        },
        {
          "internalType": "bytes4",
          "name": "callbackSelector",
          "type": "bytes4"
        },
        {
          "internalType": "uint256",
          "name": "msgValue",
          "type": "uint256"
        },
        {
          "internalType": "uint256",
          "name": "maxTimestamp",
          "type": "uint256"
        },
        {
          "internalType": "bool",
          "name": "passSignaturesToCaller",
          "type": "bool"
        }
      ],
      "name": "requestDecryption",
      "outputs": [
        {
          "internalType": "uint256",
          "name": "initialCounter",
          "type": "uint256"
        }
      ],
      "stateMutability": "nonpayable",
      "type": "function"
    },
    {
      "inputs": [
        {
          "internalType": "address",
          "name": "newOwner",
          "type": "address"
        }
      ],
      "name": "transferOwnership",
      "outputs": [],
      "stateMutability": "nonpayable",
      "type": "function"
    }
  ],
  "bytecode": "0x60a060405234801562000010575f80fd5b50604051620013153803806200131583398101604081905262000033916200010a565b816001600160a01b0381166200006257604051631e4fbdf760e01b81525f600482015260240160405180910390fd5b6200006d8162000081565b506001600160a01b03166080525062000140565b600180546001600160a01b03191690556200009c816200009f565b50565b5f80546001600160a01b038381166001600160a01b0319831681178455604051919092169283917f8be0079c531659141344cd1fd0a4f28419497f9722a3daafe3b4186f6b6457e09190a35050565b80516001600160a01b038116811462000105575f80fd5b919050565b5f80604083850312156200011c575f80fd5b6200012783620000ee565b91506200013760208401620000ee565b90509250929050565b6080516111bf620001565f395f50506111bf5ff3fe6080604052600436106100d9575f3560e01c8063715018a61161007c578063b9244e1d11610057578063b9244e1d14610235578063dd39f00d14610248578063e30c397814610267578063f2fde38b14610284575f80fd5b8063715018a6146101dd57806379ba5097146101f15780638da5cb5b14610205575f80fd5b80634c0d9277116100b75780634c0d92771461015a578063541d55481461017957806360f0a5ac146101a757806361bc221a146101c8575f80fd5b80630d8e6e2c146100dd57806335a30d97146101075780634125ff9014610136575b5f80fd5b3480156100e8575f80fd5b506100f16102a3565b6040516100fe9190610ccd565b60405180910390f35b348015610112575f80fd5b50610126610121366004610cdf565b610310565b60405190151581526020016100fe565b348015610141575f80fd5b5061014c6201518081565b6040519081526020016100fe565b348015610165575f80fd5b5061014c610174366004610d21565b61035e565b348015610184575f80fd5b50610126610193366004610dc0565b60036020525f908152604090205460ff1681565b3480156101b2575f80fd5b506101c66101c1366004610dc0565b610526565b005b3480156101d3575f80fd5b5061014c60025481565b3480156101e8575f80fd5b506101c66105dd565b3480156101fc575f80fd5b506101c66105f0565b348015610210575f80fd5b505f546001600160a01b03165b6040516001600160a01b0390911681526020016100fe565b6101c6610243366004610e97565b610634565b348015610253575f80fd5b506101c6610262366004610dc0565b610959565b348015610272575f80fd5b506001546001600160a01b031661021d565b34801561028f575f80fd5b506101c661029e366004610dc0565b610a14565b60606040518060400160405280600f81526020016e11d85d195dd85e50dbdb9d1c9858dd608a1b8152506102d65f610a84565b6102e06001610a84565b6102e95f610a84565b6040516020016102fc9493929190610f81565b604051602081830303815290604052905090565b5f81815260056020526040812054429060ff168061035757505f838152600460205260409020600301548111801561035757505f8381526004602052604090206003015415155b9392505050565b5f4283116103be5760405162461bcd60e51b815260206004820152602260248201527f6d617854696d657374616d70206d757374206265206120667574757265206461604482015261746560f01b60648201526084015b60405180910390fd5b6103cb6201518042611012565b83111561041a5760405162461bcd60e51b815260206004820152601f60248201527f6d617854696d657374616d70206578636565646564204d41585f44454c41590060448201526064016103b5565b506002545f8181526004602052604081209087905b8181101561047357828a8a8381811061044a5761044a611025565b8354600180820186555f958652602095869020929095029390930135920191909155500161042f565b506001820180546001600160c01b0319163363ffffffff60a01b19811691909117600160a01b60e08b901c0217909155600283018790556003830186905560048301805460ff191686151517905560405184917f2dc9f5cb271a872eb89f488a1d216ded8a5b96226ca01f8d3128e028ae5459f8916104fe918d918d91908d908d908d908d90611039565b60405180910390a260028054905f610515836110a4565b919050555050509695505050505050565b61052e610b14565b6001600160a01b0381165f9081526003602052604090205460ff166105955760405162461bcd60e51b815260206004820152601860248201527f41646472657373206973206e6f7420612072656c61796572000000000000000060448201526064016103b5565b6001600160a01b0381165f81815260036020526040808220805460ff19169055517ff29639ce9f9f4d0a646c7c99291b0b1d3ca3a017b8f543d03d79d9f6fc4c58249190a250565b6105e5610b14565b6105ee5f610b40565b565b60015433906001600160a01b031681146106285760405163118cdaa760e01b81526001600160a01b03821660048201526024016103b5565b61063181610b40565b50565b335f9081526003602052604090205460ff166106805760405162461bcd60e51b815260206004820152600b60248201526a2737ba103932b630bcb2b960a91b60448201526064016103b5565b5f8381526005602052604090205460ff16156106de5760405162461bcd60e51b815260206004820152601c60248201527f5265717565737420697320616c72656164792066756c66696c6c65640000000060448201526064016103b5565b5f8381526004602090815260408083208151815460e09481028201850190935260c0810183815290939192849284919084018282801561073b57602002820191905f5260205f20905b815481526020019060010190808311610727575b505050918352505060018201546001600160a01b0381166020830152600160a01b900460e01b6001600160e01b031916604082015260028201546060820152600382015460808083019190915260049092015460ff16151560a0909101528101519091504211156107d95760405162461bcd60e51b8152602060048201526008602482015267546f6f206c61746560c01b60448201526064016103b5565b5f8160400151856040516024016107f291815260200190565b60408051601f19818403018152918152602080830180516001600160e01b03166001600160e01b03199095169490941790935260a085015190519193509161083e9184918891016110bc565b6040516020818303038152906040529150801561089757818460405160200161086791906110ea565b60408051601f198184030181529082905261088592916020016110bc565b60405160208183030381529060405291505b5f8084602001516001600160a01b03168560600151856040516108ba919061114c565b5f6040518083038185875af1925050503d805f81146108f4576040519150601f19603f3d011682016040523d82523d5f602084013e6108f9565b606091505b5091509150877fb0f2a12a0cc059295d0e43aaf8b9eebb32b58c03c68f5406fbf345c3a226bedd8383604051610930929190611167565b60405180910390a25050505f94855250506005602052505060409020805460ff19166001179055565b610961610b14565b6001600160a01b0381165f9081526003602052604090205460ff16156109c95760405162461bcd60e51b815260206004820152601a60248201527f4164647265737320697320616c72656164792072656c6179657200000000000060448201526064016103b5565b6001600160a01b0381165f81815260036020526040808220805460ff19166001179055517fd68caa126e02d8ca92285deaa53a0d5d4f692e587b00422ce504661cc74361bc9190a250565b610a1c610b14565b600180546001600160a01b0383166001600160a01b03199091168117909155610a4c5f546001600160a01b031690565b6001600160a01b03167f38d16b8cac22d99fc7c124b9cd0de2d3fa1faef420bfe791d8c362d765e2270060405160405180910390a350565b60605f610a9083610b59565b60010190505f8167ffffffffffffffff811115610aaf57610aaf610de6565b6040519080825280601f01601f191660200182016040528015610ad9576020820181803683370190505b5090508181016020015b5f19016f181899199a1a9b1b9c1cb0b131b232b360811b600a86061a8153600a8504945084610ae357509392505050565b5f546001600160a01b031633146105ee5760405163118cdaa760e01b81523360048201526024016103b5565b600180546001600160a01b031916905561063181610c31565b5f8072184f03e93ff9f4daa797ed6e38ed64bf6a1f0160401b8310610b975772184f03e93ff9f4daa797ed6e38ed64bf6a1f0160401b830492506040015b6d04ee2d6d415b85acef81000000008310610bc3576d04ee2d6d415b85acef8100000000830492506020015b662386f26fc100008310610be157662386f26fc10000830492506010015b6305f5e1008310610bf9576305f5e100830492506008015b6127108310610c0d57612710830492506004015b60648310610c1f576064830492506002015b600a8310610c2b576001015b92915050565b5f80546001600160a01b038381166001600160a01b0319831681178455604051919092169283917f8be0079c531659141344cd1fd0a4f28419497f9722a3daafe3b4186f6b6457e09190a35050565b5f5b83811015610c9a578181015183820152602001610c82565b50505f910152565b5f8151808452610cb9816020860160208601610c80565b601f01601f19169290920160200192915050565b602081525f6103576020830184610ca2565b5f60208284031215610cef575f80fd5b5035919050565b80356001600160e01b031981168114610d0d575f80fd5b919050565b80358015158114610d0d575f80fd5b5f805f805f8060a08789031215610d36575f80fd5b863567ffffffffffffffff80821115610d4d575f80fd5b818901915089601f830112610d60575f80fd5b813581811115610d6e575f80fd5b8a60208260051b8501011115610d82575f80fd5b602092830198509650610d989189019050610cf6565b93506040870135925060608701359150610db460808801610d12565b90509295509295509295565b5f60208284031215610dd0575f80fd5b81356001600160a01b0381168114610357575f80fd5b634e487b7160e01b5f52604160045260245ffd5b604051601f8201601f1916810167ffffffffffffffff81118282101715610e2357610e23610de6565b604052919050565b5f82601f830112610e3a575f80fd5b813567ffffffffffffffff811115610e5457610e54610de6565b610e67601f8201601f1916602001610dfa565b818152846020838601011115610e7b575f80fd5b816020850160208301375f918101602001919091529392505050565b5f805f60608486031215610ea9575f80fd5b8335925060208085013567ffffffffffffffff80821115610ec8575f80fd5b610ed488838901610e2b565b94506040870135915080821115610ee9575f80fd5b818701915087601f830112610efc575f80fd5b813581811115610f0e57610f0e610de6565b8060051b610f1d858201610dfa565b918252838101850191858101908b841115610f36575f80fd5b86860192505b83831015610f7057823585811115610f52575f80fd5b610f608d89838a0101610e2b565b8352509186019190860190610f3c565b809750505050505050509250925092565b5f8551610f92818460208a01610c80565b61103b60f11b9083019081528551610fb1816002840160208a01610c80565b808201915050601760f91b8060028301528551610fd5816003850160208a01610c80565b60039201918201528351610ff0816004840160208801610c80565b016004019695505050505050565b634e487b7160e01b5f52601160045260245ffd5b80820180821115610c2b57610c2b610ffe565b634e487b7160e01b5f52603260045260245ffd5b60c080825281018790525f6001600160fb1b03881115611057575f80fd5b8760051b808a60e08501376001600160a01b03979097166020830152506001600160e01b031994909416604085015260608401929092526080830152151560a08201520160e00192915050565b5f600182016110b5576110b5610ffe565b5060010190565b5f83516110cd818460208801610c80565b8351908301906110e1818360208801610c80565b01949350505050565b5f60208083016020845280855180835260408601915060408160051b8701019250602087015f5b8281101561113f57603f1988860301845261112d858351610ca2565b94509285019290850190600101611111565b5092979650505050505050565b5f825161115d818460208701610c80565b9190910192915050565b8215158152604060208201525f6111816040830184610ca2565b94935050505056fea26469706673582212203b8aa88383539c3905be3c9b69bc0d5244874dc04a50785df3211dfdc603780b64736f6c63430008180033",
  "linkReferences": {},
  "deployedLinkReferences": {}
}